{
  "_format": "hh-sol-artifact-1",
  "contractName": "DecentralizedEVoting",
  "sourceName": "contracts/DecentralizedEVoting.sol",
  "abi": [
    {
      "inputs": [
        {
          "internalType": "bytes32[]",
          "name": "_candidateNames",
          "type": "bytes32[]"
        }
      ],
      "stateMutability": "payable",
      "type": "constructor"
    },
    {
      "anonymous": false,
      "inputs": [
        {
          "indexed": true,
          "internalType": "address",
          "name": "previousOwner",
          "type": "address"
        },
        {
          "indexed": true,
          "internalType": "address",
          "name": "newOwner",
          "type": "address"
        }
      ],
      "name": "OwnershipTransferred",
      "type": "event"
    },
    {
      "inputs": [
        {
          "internalType": "uint256",
          "name": "",
          "type": "uint256"
        }
      ],
      "name": "candidates",
      "outputs": [
        {
          "internalType": "uint256",
          "name": "ID",
          "type": "uint256"
        },
        {
          "internalType": "bytes32",
          "name": "Name",
          "type": "bytes32"
        },
        {
          "internalType": "uint256",
          "name": "Votes",
          "type": "uint256"
        }
      ],
      "stateMutability": "view",
      "type": "function"
    },
    {
      "inputs": [],
      "name": "endElection",
      "outputs": [],
      "stateMutability": "nonpayable",
      "type": "function"
    },
    {
      "inputs": [],
      "name": "hasEnded",
      "outputs": [
        {
          "internalType": "bool",
          "name": "",
          "type": "bool"
        }
      ],
      "stateMutability": "view",
      "type": "function"
    },
    {
      "inputs": [
        {
          "internalType": "address",
          "name": "",
          "type": "address"
        }
      ],
      "name": "hasVoted",
      "outputs": [
        {
          "internalType": "bool",
          "name": "",
          "type": "bool"
        }
      ],
      "stateMutability": "view",
      "type": "function"
    },
    {
      "inputs": [],
      "name": "owner",
      "outputs": [
        {
          "internalType": "address",
          "name": "",
          "type": "address"
        }
      ],
      "stateMutability": "view",
      "type": "function"
    },
    {
      "inputs": [],
      "name": "renounceOwnership",
      "outputs": [],
      "stateMutability": "nonpayable",
      "type": "function"
    },
    {
      "inputs": [
        {
          "internalType": "address",
          "name": "newOwner",
          "type": "address"
        }
      ],
      "name": "transferOwnership",
      "outputs": [],
      "stateMutability": "nonpayable",
      "type": "function"
    },
    {
      "inputs": [],
      "name": "viewCandidates",
      "outputs": [
        {
          "components": [
            {
              "internalType": "uint256",
              "name": "ID",
              "type": "uint256"
            },
            {
              "internalType": "bytes32",
              "name": "Name",
              "type": "bytes32"
            },
            {
              "internalType": "uint256",
              "name": "Votes",
              "type": "uint256"
            }
          ],
          "internalType": "struct DecentralizedEVoting.Candidate[]",
          "name": "",
          "type": "tuple[]"
        }
      ],
      "stateMutability": "view",
      "type": "function"
    },
    {
      "inputs": [
        {
          "internalType": "uint256",
          "name": "_id",
          "type": "uint256"
        }
      ],
      "name": "vote",
      "outputs": [],
      "stateMutability": "nonpayable",
      "type": "function"
    }
  ],
  "bytecode": "0x608060405260405162001130380380620011308339818101604052810190620000299190620002a1565b620000496200003d6200011c60201b60201c565b6200012460201b60201c565b60005b8151811015620001145760026040518060600160405280838152602001848481518110620000a3577f4e487b7100000000000000000000000000000000000000000000000000000000600052603260045260246000fd5b6020026020010151815260200160008152509080600181540180825580915050600190039060005260206000209060030201600090919091909150600082015181600001556020820151816001015560408201518160020155505080806200010b9062000388565b9150506200004c565b50506200045f565b600033905090565b60008060009054906101000a900473ffffffffffffffffffffffffffffffffffffffff169050816000806101000a81548173ffffffffffffffffffffffffffffffffffffffff021916908373ffffffffffffffffffffffffffffffffffffffff1602179055508173ffffffffffffffffffffffffffffffffffffffff168173ffffffffffffffffffffffffffffffffffffffff167f8be0079c531659141344cd1fd0a4f28419497f9722a3daafe3b4186f6b6457e060405160405180910390a35050565b6000620001ff620001f9846200030f565b620002e6565b905080838252602082019050828560208602820111156200021f57600080fd5b60005b858110156200025357816200023888826200028a565b84526020840193506020830192505060018101905062000222565b5050509392505050565b600082601f8301126200026f57600080fd5b815162000281848260208601620001e8565b91505092915050565b6000815190506200029b8162000445565b92915050565b600060208284031215620002b457600080fd5b600082015167ffffffffffffffff811115620002cf57600080fd5b620002dd848285016200025d565b91505092915050565b6000620002f262000305565b905062000300828262000352565b919050565b6000604051905090565b600067ffffffffffffffff8211156200032d576200032c62000405565b5b602082029050602081019050919050565b6000819050919050565b6000819050919050565b6200035d8262000434565b810181811067ffffffffffffffff821117156200037f576200037e62000405565b5b80604052505050565b6000620003958262000348565b91507fffffffffffffffffffffffffffffffffffffffffffffffffffffffffffffffff821415620003cb57620003ca620003d6565b5b600182019050919050565b7f4e487b7100000000000000000000000000000000000000000000000000000000600052601160045260246000fd5b7f4e487b7100000000000000000000000000000000000000000000000000000000600052604160045260246000fd5b6000601f19601f8301169050919050565b62000450816200033e565b81146200045c57600080fd5b50565b610cc1806200046f6000396000f3fe608060405234801561001057600080fd5b50600436106100935760003560e01c8063715018a611610066578063715018a6146101205780638da5cb5b1461012a578063d30f11dd14610148578063ecb70fb714610166578063f2fde38b1461018457610093565b80630121b93f1461009857806309eef43e146100b45780633477ee2e146100e457806359f7846814610116575b600080fd5b6100b260048036038101906100ad9190610783565b6101a0565b005b6100ce60048036038101906100c9919061075a565b610338565b6040516100db9190610987565b60405180910390f35b6100fe60048036038101906100f99190610783565b610358565b60405161010d93929190610a22565b60405180910390f35b61011e610392565b005b61012861042b565b005b6101326104b3565b60405161013f919061094a565b60405180910390f35b6101506104dc565b60405161015d9190610965565b60405180910390f35b61016e610559565b60405161017b9190610987565b60405180910390f35b61019e6004803603810190610199919061075a565b61056c565b005b600060149054906101000a900460ff16156101f0576040517f08c379a00000000000000000000000000000000000000000000000000000000081526004016101e790610a02565b60405180910390fd5b600160003373ffffffffffffffffffffffffffffffffffffffff1673ffffffffffffffffffffffffffffffffffffffff16815260200190815260200160002060009054906101000a900460ff161561027d576040517f08c379a0000000000000000000000000000000000000000000000000000000008152600401610274906109c2565b60405180910390fd5b60018060003373ffffffffffffffffffffffffffffffffffffffff1673ffffffffffffffffffffffffffffffffffffffff16815260200190815260200160002060006101000a81548160ff0219169083151502179055506002818154811061030e577f4e487b7100000000000000000000000000000000000000000000000000000000600052603260045260246000fd5b9060005260206000209060030201600201600081548092919061033090610af5565b919050555050565b60016020528060005260406000206000915054906101000a900460ff1681565b6002818154811061036857600080fd5b90600052602060002090600302016000915090508060000154908060010154908060020154905083565b61039a610664565b73ffffffffffffffffffffffffffffffffffffffff166103b86104b3565b73ffffffffffffffffffffffffffffffffffffffff161461040e576040517f08c379a0000000000000000000000000000000000000000000000000000000008152600401610405906109e2565b60405180910390fd5b6001600060146101000a81548160ff021916908315150217905550565b610433610664565b73ffffffffffffffffffffffffffffffffffffffff166104516104b3565b73ffffffffffffffffffffffffffffffffffffffff16146104a7576040517f08c379a000000000000000000000000000000000000000000000000000000000815260040161049e906109e2565b60405180910390fd5b6104b1600061066c565b565b60008060009054906101000a900473ffffffffffffffffffffffffffffffffffffffff16905090565b60606002805480602002602001604051908101604052809291908181526020016000905b828210156105505783829060005260206000209060030201604051806060016040529081600082015481526020016001820154815260200160028201548152505081526020019060010190610500565b50505050905090565b600060149054906101000a900460ff1681565b610574610664565b73ffffffffffffffffffffffffffffffffffffffff166105926104b3565b73ffffffffffffffffffffffffffffffffffffffff16146105e8576040517f08c379a00000000000000000000000000000000000000000000000000000000081526004016105df906109e2565b60405180910390fd5b600073ffffffffffffffffffffffffffffffffffffffff168173ffffffffffffffffffffffffffffffffffffffff161415610658576040517f08c379a000000000000000000000000000000000000000000000000000000000815260040161064f906109a2565b60405180910390fd5b6106618161066c565b50565b600033905090565b60008060009054906101000a900473ffffffffffffffffffffffffffffffffffffffff169050816000806101000a81548173ffffffffffffffffffffffffffffffffffffffff021916908373ffffffffffffffffffffffffffffffffffffffff1602179055508173ffffffffffffffffffffffffffffffffffffffff168173ffffffffffffffffffffffffffffffffffffffff167f8be0079c531659141344cd1fd0a4f28419497f9722a3daafe3b4186f6b6457e060405160405180910390a35050565b60008135905061073f81610c5d565b92915050565b60008135905061075481610c74565b92915050565b60006020828403121561076c57600080fd5b600061077a84828501610730565b91505092915050565b60006020828403121561079557600080fd5b60006107a384828501610745565b91505092915050565b60006107b883836108ea565b60608301905092915050565b6107cd81610aa3565b82525050565b60006107de82610a69565b6107e88185610a81565b93506107f383610a59565b8060005b8381101561082457815161080b88826107ac565b975061081683610a74565b9250506001810190506107f7565b5085935050505092915050565b61083a81610ab5565b82525050565b61084981610ac1565b82525050565b61085881610ac1565b82525050565b600061086b602683610a92565b915061087682610b6d565b604082019050919050565b600061088e602383610a92565b915061089982610bbc565b604082019050919050565b60006108b1602083610a92565b91506108bc82610c0b565b602082019050919050565b60006108d4601c83610a92565b91506108df82610c34565b602082019050919050565b606082016000820151610900600085018261092c565b5060208201516109136020850182610840565b506040820151610926604085018261092c565b50505050565b61093581610aeb565b82525050565b61094481610aeb565b82525050565b600060208201905061095f60008301846107c4565b92915050565b6000602082019050818103600083015261097f81846107d3565b905092915050565b600060208201905061099c6000830184610831565b92915050565b600060208201905081810360008301526109bb8161085e565b9050919050565b600060208201905081810360008301526109db81610881565b9050919050565b600060208201905081810360008301526109fb816108a4565b9050919050565b60006020820190508181036000830152610a1b816108c7565b9050919050565b6000606082019050610a37600083018661093b565b610a44602083018561084f565b610a51604083018461093b565b949350505050565b6000819050602082019050919050565b600081519050919050565b6000602082019050919050565b600082825260208201905092915050565b600082825260208201905092915050565b6000610aae82610acb565b9050919050565b60008115159050919050565b6000819050919050565b600073ffffffffffffffffffffffffffffffffffffffff82169050919050565b6000819050919050565b6000610b0082610aeb565b91507fffffffffffffffffffffffffffffffffffffffffffffffffffffffffffffffff821415610b3357610b32610b3e565b5b600182019050919050565b7f4e487b7100000000000000000000000000000000000000000000000000000000600052601160045260246000fd5b7f4f776e61626c653a206e6577206f776e657220697320746865207a65726f206160008201527f6464726573730000000000000000000000000000000000000000000000000000602082015250565b7f54686973206164647265737320686173206265656e20766f746564206265666f60008201527f72652e0000000000000000000000000000000000000000000000000000000000602082015250565b7f4f776e61626c653a2063616c6c6572206973206e6f7420746865206f776e6572600082015250565b7f5468697320656c6563746f6e20686173206265656e20656e6465642e00000000600082015250565b610c6681610aa3565b8114610c7157600080fd5b50565b610c7d81610aeb565b8114610c8857600080fd5b5056fea2646970667358221220be4d2a85da22bd557e1fc7c1092c2b7da14d4e977be9628d8ab68a8a3e3bd7b964736f6c63430008040033",
  "linkReferences": {},
  "deployedLinkReferences": {}
}